S0180000415454494E5943656C6C4D6F64756C652E737265634D
S11300009EC0B8C0B7C0B6C0B5C0B4C0B3C0B2C05B
S1130010B1C0B0C0AFC0AEC0ADC01DC1ABC0AAC0FE
S1130020A9C0A8C0A7C0A6C0A5C0A4C0A3C0A2C0A0
S1130030A1C0A0C09FC09EC09DC09CC06E616E0048
S1130040696E660000407A10F35A00A0724E1809D7
S11300500010A5D4E80000E87648170000E40B542B
S1130060020000CA9A3B000000E1F50500008096FA
S11300709800000040420F000000A086010000002C
S1130080102700000000E8030000000064000000E6
S113009000000A00000000000100000000002C76AF
S11300A0D888DC674F0823DFC1DFAE59E1B1B796CA
S11300B0E5E3E453C63AE651997696E8E6C2842627
S11300C0EB898C9B62ED407C6FFCEFBC9C9F40F203
S11300D0BAA56FA5F490055A2AF75C936B6CF9677F
S11300E06DC11BFCE0E40D47FEF520E6B500D0ED44
S11300F0902E0300943577050080841E08000020AC
S11301004E0A000000C80C333333330F986E128349
S11301101141EF8D2114893BE65516CFFEE6DB181D
S1130120D1844B381BF77C1D901DA4BBE4242032E2
S113013084725E228100C9F124ECA1E53D271124DB
S11301401FBECFEFD2E0DEBFCDBF11E0A0E0B1E033
S1130150E4ECF1E102C005900D92A433B107D9F7A4
S113016021E0A4E3B1E001C01D92A533B207E1F799
S11301706FD126C85AC0E6E8F0E0908195FFFDCF24
S1130180809380000895CF93DF93EC01E6E8F0E0DC
S11301908081806480838881882329F02196EBDF25
S11301A089918111FCCFE6E8F0E0808186FFFDCFE4
S11301B0DF91CF91089588ED8093710082E0809360
S11301C0730010926300109262008AB3826C8ABB3F
S11301D0BA9A88E1809385008CE080938100089529
S11301E0DE9A88E285BF889585B78F7D85BFDE98C6
S11301F00895DF9A82E48A95F1F700C02F9A80E887
S113020088B983E089B9E0E6F0E08081896380837E
S11302102A9A2B9A2C9A81E0809334010895F894B9
S1130220109234012F98DF9808951F920F920FB601
S11302300F921124DE98C29A87EA91E60197F1F7AA
S113024000C00000DE9AC29887EA91E60197F1F7B0
S113025000C00000EFCF1895813041F028F08230C3
S113026041F0833049F0089519B8089583E089B9BD
S1130270089584E089B9089585E089B9089586B11F
S113028027B190E0922B0895CF93C82F8091340129
S1130290811101C0AEDF8C2FDFDF78942C9A2E9A67
S11302A09FDF2E99FECF2C9AEADFCF910895CF924B
S11302B0DF92EF92FF920F931F93CF93DF93F82E69
S11302C0D62F662359F0C0E000E010E08F2DDCDF6C
S11302D0080F191FCF5FDC13F9CF02C000E010E054
S11302E0B80180E090E01FD16B017C016D2F70E0BC
S11302F080E090E018D19B01AC01C701B601ABD0FE
S1130300DF91CF911F910F91FF90EF90DF90CF90ED
S113031008957F928F929F92AF92BF92CF92DF9275
S1130320EF92FF920F931F93CF93DF93CDB7DEB776
S1130330C456D1090FB6F894DEBF0FBECDBF8824D2
S1130340839410E00F2EF4E67F2EF02DCE0101965B
S11303507C010F2EF4E2CF2EF1E0DF2EF02D02C04F
S11303601F5F8394C29A6AE0812FA1DF062FB72E04
S1130370A82E992EC2982AE038E240EA5AE361D1C5
S1130380113019F5F701272D11922A95E9F728E67E
S11303903FE241E650E455D19F938F937F936F934F
S11303A09F92AF92BF920F931F921F93DF92CF92AF
S11303B01F927F92FF92EF9276D6C701E4DE0FB6CA
S11303C0F894DEBF0FBECDBFCBCFF701272D11921E
S11303D02A95E9F79F938F937F936F939F92AF92A0
S11303E0BF920F931F921F93DF92CF921F927F921F
S11303F0FF92EF9258D6C701C6DE0FB6F894DEBF5F
S11304000FBECDBF93E0981508F0AACF08DF80E1B6
S113041091E0B9DEEFE7FAE126E0E150F040204058
S1130420E1F700C00000CC59DF4F0FB6F894DEBFEF
S11304300FBECDBFDF91CF911F910F91FF90EF9031
S1130440DF90CF90BF90AF909F908F907F90089552
S1130450B2DE5FDFFECF0CD0BAC0B2D040F0A9D07C
S113046030F021F45F3F19F09BC05111E4C09EC0ED
S1130470BFD098F39923C9F35523B1F3951B550BBA
S1130480BB27AA2762177307840738F09F5F5F4F63
S1130490220F331F441FAA1FA9F333D00E2E3AF0A4
S11304A0E0E830D091505040E695001CCAF729D0BE
S11304B0FE2F27D0660F771F881FBB1F261737070D
S11304C04807AB07B0E809F0BB0B802DBF01FF273D
S11304D093585F4F2AF09E3F510568F061C0ABC04E
S11304E05F3FECF3983EDCF3869577956795B79577
S11304F0F7959F5FC9F7880F911D9695879597F992
S11305000895E1E0660F771F881FBB1F621773070A
S11305108407BA0720F0621B730B840BBA0BEE1F1F
S113052088F7E0950895E89409C097FB3EF4909508
S11305308095709561957F4F8F4F9F4F9923A9F0B8
S1130540F92F96E9BB279395F69587957795679547
S1130550B795F111F8CFFAF4BB0F11F460FF1BC08B
S11305606F5F7F4F8F4F9F4F16C0882311F096E91E
S113057011C0772321F09EE8872F762F05C06623CC
S113058071F096E8862F70E060E02AF09A95660F85
S1130590771F881FDAF7880F9695879597F908953E
S11305A097F99F6780E870E060E008959FEF80EC22
S11305B0089500240A9416161706180609060895C5
S11305C000240A9412161306140605060895092E2B
S11305D00394000C11F4882352F0BB0F40F4BF2B9A
S11305E011F460FF04C06F5F7F4F8F4F9F4F0895DA
S11305F057FD9058440F551F59F05F3F71F04795D0
S1130600880F97FB991F61F09F3F79F087950895B4
S1130610121613061406551FF2CF4695F1DF08C0D3
S1130620161617061806991FF1CF869571056105F0
S113063008940895E894BB2766277727CB0197F998
S113064008950AD0C4CFB5DF28F0BADF18F0952397
S113065009F0A6CFABCFEFCFCBDFA8F39923D9F323
S11306605523C9F3950F50E0551FAA27EE27FF27FE
S1130670BB2700240894679520F4E20FF31FB41FEE
S11306800A1E220F331F441FAA1F6695A9F77795E8
S113069030F4F30FB41F0A1E121E08F46395330FCF
S11306A0441FAA1F221F769599F7879520F4B40F4B
S11306B00A1E121E631F440FAA1F221F331F869592
S11306C0A9F7862F712D602D11249F5750408AF071
S11306D0E1F088234AF0EE0FFF1FBB1F661F771F50
S11306E0881F91505040A9F79E3F510570F058CF94
S11306F0A2CF5F3FECF3983EDCF386957795679540
S1130700B795F795E7959F5FC1F7FE2B880F911D6D
S11307109695879597F90895A0E1B0E0E1E9F3E0B3
S113072061C37C011B016A01FC011782168283816B
S113073081FF29C39E012F5F3F4F3901F701938148
S1130740F10193FD859193FF81911F01882309F4A1
S113075016C3853239F493FD859193FF81911F016E
S1130760853231F4B70190E062D456016501E6CFD9
S113077010E0512C912CFFE1F915E0F08B3281F05F
S113078040F4803281F08332A9F4F92DF0619F2E78
S113079038C08D3259F0803369F4292D21601FC08F
S11307A0392D3260932E892D846027C0E92DE860AD
S11307B09E2E27C097FC2DC020ED280F2A3088F4E8
S11307C096FE06C0812F6AE004D3122F180F19C0B9
S11307D0852D6AE0FED2522E580E292D2062922ECB
S11307E010C08E3231F496FCCAC2392D3064932E77
S11307F008C08C3621F4892D8068982E02C0883672
S113080041F4F10193FD859193FF81911F018111C1
S1130810B2CF9BEB980F933020F4992D9061805EBA
S113082007C09BE9980F933008F057C1992D9F7E1C
S113083096FF16E09F73992E853611F4906403C0D9
S1130840863619F49068992E02C01111115097FE42
S113085007C01C3350F444244394410E27E00BC0DA
S1130860183038F027E017E005C027E09CE3492E54
S113087002C0212F412C5601E4E0AE0EB11CF6015A
S11308806081718182819381042DA301E2D26C0184
S1130890F981FC87F0FF02C0F3FF06C091FC06C09B
S11308A092FE06C000E205C00DE203C00BE201C0E7
S11308B000E08C858C7019F0011143C280C297FE50
S11308C010C04C0CFC85F4FF04C08A81813309F408
S11308D04A94141474F528E0241578F588E0482E19
S11308E02CC096FC2AC0812F90E08C159D059CF0AD
S11308F03CEFC3163FEFD30674F0892D8068982E21
S11309000AC0E2E0F0E0EC0FFD1FE10FF11D808171
S1130910803319F411501111F4CF97FE0EC0442402
S11309204394410E812F90E0C816D9062CF41C196B
S113093004C04424439401C010E097FE06C01C1474
S11309401D0434F4C601019605C085E090E002C0A0
S113095081E090E001110196112331F0212F30E064
S11309602F5F3F4F820F931F252D30E0821793078F
S113097014F4581A01C0512C892D897041F4552062
S113098031F0B70180E290E052D35A94F8CF0023BB
S113099021F0B701802F90E04AD393FC08C0552082
S11309A031F0B70180E390E042D35A94F8CF97FE38
S11309B04AC04601D7FE02C0812C912CC601881979
S11309C09909F301E80FF91FFE87ED8796012419B1
S11309D03109388B2F87012F10E0119501951109EA
S11309E03FEF8316930621F4B7018EE290E01FD304
S11309F0C814D9044CF08F8598898815990524F476
S1130A00ED85FE85818101C080E3F1E08F1A9108B4
S1130A102D853E852F5F3F4F3E872D87801691069B
S1130A2024F0B70190E003D3DBCFC814D90441F418
S1130A309A81963320F4953319F43C8534FF81E38D
S1130A40B70190E048C08A81813319F09C859F7E6C
S1130A509C87B70190E0EBD2111105C094FC16C03D
S1130A6085E690E015C0B7018EE290E0E0D21E5F0B
S1130A7082E001E0080FF301E80FF11D8081B70166
S1130A8090E0D5D2802F0113F4CFE8CF85E490E035
S1130A90B701CDD2D7FC06C0C114D10441F4EC8512
S1130AA0E4FF05C0D194C194D1088DE201C08BE26A
S1130AB0B70190E0BCD280E32AE0C216D1042CF046
S1130AC08F5FFAE0CF1AD108F7CFB70190E0AFD229
S1130AD0B701C601C096ABD249C1833631F0833722
S1130AE079F0833509F052C01FC0560132E0A30EDD
S1130AF0B11CF6018081898301E010E0630111C01B
S1130B005601F2E0AF0EB11CF601C080D18096FE12
S1130B1003C0612F70E002C06FEF7FEFC6017CD28B
S1130B208C01F92DFF7713C0560122E0A20EB11CEF
S1130B30F601C080D18096FE03C0612F70E002C030
S1130B406FEF7FEFC6015DD28C01F92DF0689F2E07
S1130B50F3FD18C0852D90E00817190798F4B70124
S1130B6080E290E064D25A94F5CFF60197FC859127
S1130B7097FE81916F01B70190E059D251105A94B8
S1130B80015011090115110581F7F0C0843611F0E7
S1130B90893659F5560197FE09C024E0A20EB11C0E
S1130BA0F60160817181828193810AC0F2E0AF0E07
S1130BB0B11CF60160817181072E000C880B990B22
S1130BC0F92DFF769F2E97FF09C09095809570951B
S1130BD061957F4F8F4F9F4FF0689F2E2AE030E042
S1130BE0A3018ED2C82EC6183EC0092D853721F424
S1130BF00F7E2AE030E01DC0097F8F3691F018F493
S1130C00883559F0BCC0803719F0883711F0B7C067
S1130C10006104FF09C0046007C094FE08C00660B8
S1130C2006C028E030E005C020E130E002C020E149
S1130C3032E0560107FF09C084E0A80EB11CF6019A
S1130C40608171818281938108C0F2E0AF0EB11C92
S1130C50F6016081718180E090E0A30151D2C82E39
S1130C60C6180F77902E96FE0BC0092D0E7FC11665
S1130C7050F494FE0AC092FC08C0092D0E7E05C0F3
S1130C80DC2C092D03C0DC2C01C0D12E04FF0DC0C7
S1130C90FE01EC0DF11D8081803311F4097E09C041
S1130CA002FF06C0D394D39404C0802F867809F041
S1130CB0D39403FD10C000FF06C01C2DD51478F496
S1130CC0150D1D190CC0D51450F4B70180E290E045
S1130CD0AED1D394F8CFD51410F45D1801C0512CC3
S1130CE004FF0FC0B70180E390E0A1D102FF16C05A
S1130CF001FD03C088E790E002C088E590E0B701F9
S1130D000CC0802F867851F001FF02C08BE201C035
S1130D1080E207FD8DE2B70190E089D1C11630F47D
S1130D20B70180E390E083D11150F8CFCA94F30166
S1130D30EC0DF11D8081B70190E079D1C110F6CF9F
S1130D4015C0F4E0F51550F584E0581A93FE1EC062
S1130D50011125C02C8523FF27C00CE310E0392D99
S1130D603071932EF8018491811121C0552009F42A
S1130D70FDCCB70180E290E05AD15A94F7CFF70145
S1130D808681978123C08FEF9FEF20C0B70180E257
S1130D9090E04DD15A945110F9CFDACF512CB701CC
S1130DA0802F90E044D1D6CF00E410E0D8CF91104A
S1130DB08052B70190E03BD10F5F1F4FD3CF23E0A8
S1130DC0251510F483E0C1CF512CC4CF6096E2E125
S1130DD025C0002480FD060E660F11F08695D1F71C
S1130DE0802D08952F923F924F925F926F927F923F
S1130DF08F929F92AF92BF92CF92DF92EF92FF9227
S1130E000F931F93CF93DF93CDB7DEB7CA1BDB0BD2
S1130E100FB6F894DEBF0FBECDBF09942A88398877
S1130E2048885F846E847D848C849B84AA84B9847E
S1130E30C884DF80EE80FD800C811B81AA81B9818A
S1130E40CE0FD11D0FB6F894DEBF0FBECDBFED019E
S1130E500895283008F027E03327DA01990F311D6F
S1130E6087FD916000966105710539F432602E5F4B
S1130E703D9330E32A95E1F708959F3F30F08038A1
S1130E807105610509F03C5F3C5F3D93913008F0CA
S1130E908068911DDF93CF931F930F93FF92EF927E
S1130EA0192F987F9695E92F96959695E90FFF2728
S1130EB0E256FF4F99273327EE24FF24A701E701C9
S1130EC005900894079428F4360FE71EF81E491F6E
S1130ED0511D660F771F881F991F0694A1F705906F
S1130EE0079428F4E70EF81E491F561FC11D770FFB
S1130EF0881F991F661F0694A1F70590079428F48C
S1130F00F80E491F561FC71FD11D880F991F661F52
S1130F10771F0694A1F70590079420F4490F561FF4
S1130F20C71FD81F990F661F771F881F0694A9F73C
S1130F3084911095177041F0D695C79557954795AC
S1130F40F794E7941A95C1F7E4E4F0E068941590F7
S1130F50159135916591959105907FE27395E1180E
S1130F60F10A430B560BC90BD009C0F7E10CF11E73
S1130F70431F561FC91FD01D7EF4703311F48A9588
S1130F80E6CFE894015030F0080F0AF40027021766
S1130F9008F4202F2395022F7A3328F079E37D93E8
S1130FA02A95E9F710C07D932A9589F606949795BA
S1130FB06795379517951794E118F10A430B560B6B
S1130FC0C90BD00998F023957E9173957A3308F074
S1130FD070E37C932013B8F77E9170617D9330F0B9
S1130FE0839571E37D9370E32A95E1F71124EF90E3
S1130FF0FF900F911F91CF91DF91992787FD9095D5
S11310000895FC010590615070400110D8F7809557
S113101090958E0F9F1F0895FC01615070400190C0
S11310200110D8F7809590958E0F9F1F08950F9308
S11310301F93CF93DF93FB01238121FD03C08FEF27
S11310409FEF2CC022FF16C0468157812481358131
S11310504217530744F4A081B1819D012F5F3F4F94
S1131060318320838C93268137812F5F3F4F3783D1
S1131070268314C08B01EC01FB010084F185E02D73
S11310800995892BE1F6D80116968D919C911797B5
S1131090019617969C938E931697CE01DF91CF916C
S11310A01F910F910895AEE0B0E0E8E5F8E0A8CE16
S11310B00D891E898F89988D26E02C831A830983D4
S11310C097FF02C080E090E801979E838D83AE0174
S11310D0455E5F4F698D7A8DCE0101961DDB4D8192
S11310E05E8157FD0AC02F813885421753070CF4DF
S11310F09A01F801E20FF31F10822E96E4E09CCED1
S1131100FA01AA27283061F1203191F1E8946F9314
S11311106E7F6E5F7F4F8F4F9F4FAF4FB1E040D0D8
S1131120B4E03ED0670F781F891F9A1FA11D680F76
S1131130791F8A1F911DA11D6A0F711D811D911DAB
S1131140A11D22D009F468943F91062E000C301999
S1131150000C000C3019305D3193CEF6CF010895A8
S1131160462F4770405D4193B3E00FD0C9F7F6CFE7
S1131170462F4F70405D4A3318F0495D31FD4052AF
S1131180419302D0A9F7EACFB4E0A6959795879545
S113119077956795BA95C9F7009761057105089524
S11311A09B01AC010A2E06945795479537952795D0
S11311B0BA95C9F7620F731F841F951FA01D089568
S10711C0F894FFCFCD
S11311C47465737431202E2E2E200074657374326A
S11311D40A007465737433202E2E2E2000746573F4
S11311E474340A00256420252E326620252E3366A5
S10711F4560A000093
S9030000FC
