S0180000415454494E5943656C6C4D6F64756C652E737265634D
S11300001DC024C023C022C021C020C01FC01EC0E8
S11300101DC01CC01BC01AC019C018C017C016C010
S113002015C014C013C012C011C010C00FC00EC040
S11300300DC00CC00BC00AC009C008C011241FBEEB
S1130040CFEFD2E0DEBFCDBF8ED08FC0D9CF88ED49
S11300508093710082E08093730010926300109289
S113006062008AB3826C8ABB87B3846087BB0895BD
S11300708BB380688BBB85B1806885B980E888B90B
S113008081E189B9E0E6F0E080818963808385B10C
S1130090836085B985B1846085B985B1806485B98B
S11300A00895CF93DF93CDB7DEB72A970FB6F894B0
S11300B0DEBF0FBECDBF8BB380648BBBD9DF85B1F0
S11300C0806485B92C9BFECF85B1806185B926B14A
S11300D087B190E0982F8827822B9A83898385B1F2
S11300E0806485B92C9BFECF85B1806185B926B12A
S11300F087B190E0982F8827822B9C838B8385B1CE
S1130100806485B92C9BFECF85B1806185B926B109
S113011087B190E0982F8827822B9E838D8385B1A9
S1130120806485B92C9BFECF85B1806185B926B1E9
S113013087B190E0982F8827822B98878F8385B189
S1130140806485B92C9BFECF85B1806185B926B1C9
S113015087B190E0982F8827822B9A87898788B364
S1110160846088BBFFCF73DF9CDFF894FFCF71
S9030000FC
