S0180000415454494E5943656C6C4D6F64756C652E737265634D
S113000053C06DC06CC06BC010C169C068C067C00C
S113001066C065C064C063C062C074C460C05FC0B1
S11300205EC05DC05CC05BC05AC068C58AC500C6FE
S11300303CC655C054C053C052C051C0F4C200C3E2
S113004012C315C319C375C3A0C3D0C3CAC3080060
S11300500000BE922449123EABAAAA2ABECDCCCC43
S11300604C3E00000080BEABAAAAAA3E00000000DD
S1130070BF000000803F0000000000084178D3BBAF
S11300804387D1133D190E3CC3BD4282AD2B3E685C
S1130090EC8276BED98FE1A93E4C80EFFFBE01C44D
S11300A0FF7F3F000000000011241FBECFEFD2E00D
S11300B0DEBFCDBF11E0A0E0B1E0E4EBF2E102C0AD
S11300C005900D92A830B107D9F722E0A8E0B1E07D
S11300D001C01D92A837B207E1F7A2D0E9C831C028
S11300E098ED89E20FB6F894A8959093710081BDBC
S11300F00FBE81B5886481BD9093710082E08093C6
S1130100730010926300109262008AB3826C8ABBFF
S113011087B3846087BBE5E8F0E088E98083808169
S1130120877F808386E28093840080EA80938300C3
S11301308CE080938100A89581B5806481BD78941A
S113014008951F920F920FB60F9211248BB38F7BD9
S11301508BBB88B3846088BB87EA91E60197F1F78B
S113016000C000008BB380648BBB88B38B7F88BBDB
S113017087EA91E60197F1F700C00000E7CF80E13C
S113018080930A01089510920901089581E08093F3
S11301900901089510920801089581E080930801EF
S11301A008958DD38BB38F7B8BBB42D4089587D3B3
S11301B08BB38F7B8BBB4ED40895A89581B5806497
S11301C081BDF6D181B5806481BD80910A01882307
S11301D0B1F0815080930A0188B3846088BB87EAB8
S11301E091E60197F1F700C0000088B38B7F88BBCC
S11301F087EA91E60197F1F700C000000895809125
S11302000801882359F080910901882329F0CFDF60
S113021088B38B7F88BB0895C4DF0895C2DF089537
S11302205FDF12D0ACDFC9DFFECF1F920F920FB693
S11302300F9211248F938BB380648BBB8F910F909B
S11302400FBE0F901F901895CF92DF92EF92FF92FE
S11302509DD36B017C0120E030E0A901B6D5882351
S113026049F0C0920401D0920501E0920601F09297
S113027007010CC08AE098E2A0EABAE38093040183
S113028090930501A0930601B09307018FD30097C3
S113029029F0909303018093020106C08EE69FE04B
S11302A090930301809302018BD3009729F09093DC
S11302B001018093000106C08EE69FE09093010146
S11302C080930001FF90EF90DF90CF9008956AE053
S11302D081E02ED320910401309105014091060163
S11302E05091070106D72CE438EE4BE555E401D7CD
S11302F0DDD5CB0108956AE081E01AD32091040191
S1130300309105014091060150910701F2D628E68B
S11303103FE241E650E4EDD6089561E082E008D37F
S1130320C5D580910201909103019DD3089561E0A8
S113033083E0FED2BBD5809100019091010193D35B
S11303400895813410F480530895875308951F93BA
S1130350CF93DF93EC018881F4DF182F1295107F7F
S11303608981EFDF810FDF91CF911F9108950F9362
S11303701F93CF93DF938C01FC018081E2DFF0E0D7
S1130380CF2FD82FD295D07FF8018181DADF90E08A
S1130390982F8827C80FD91FF8018281D2DF90E0F7
S11303A082959295907F9827807F9827C80FD91FB0
S11303B0F8018381C6DF9E01280F311DC901DF9139
S11303C0CF911F910F9108958A3010F4805D0895A4
S11303D0895C08951F93CF93DF93EC01162F862F2A
S11303E082958F70F1DF8883812F8F70EDDF898391
S11303F0DF91CF911F9108950F931F93CF93DF93B4
S1130400EC018B01812F82958F70DEDF8883C80118
S11304109F70892FD9DF8983C80199279295829586
S11304208F7089279F708927CFDF8A83802F8F70F1
S1130430CBDF8B83DF91CF911F910F910895CF92E2
S1130440DF92EF92FF92CF93DF93EC016A017B017D
S1130450DB01CA01072E7CE1B695A7959795879590
S11304607A95D1F7702DB0DF8883D701C601BF70AC
S11304708B2FAADF8983D701C601BB27072E74E11E
S1130480B695A795979587957A95D1F7702D9CDFAA
S11304908A83C701B6018F70992796DF8B83D701B2
S11304A0C601AA27BB27072E7CE0B695A79597958A
S11304B087957A95D1F7702D87DF8C83D701C60194
S11304C09F70AA27BB27892F7FDF8D83D701C601A1
S11304D09927AA27BB27689413F8B695A7959795EB
S11304E087951694D1F770DF8E838C2D8F706CDF17
S11304F08F83DF91CF91FF90EF90DF90CF9008959D
S1130500FC018081813209F4319680E002C0319689
S113051089279081992321F09A3011F09A32B9F702
S113052008950F931F93CF93DF93C82FD92F21964C
S113053028812111FCCF2AE2FE0121938F01E0DF03
S1130540682FC80147DF8AE08B83DF91CF911F9129
S11305500F9108951F93CF93DF93FC018081813223
S1130560A1F4EF0101C021969881992311F09A32E8
S1130570D1F79A3261F4CF01C3DF182FCE0101966F
S1130580E6DE181731F080E005C080E003C080E0AB
S113059001C081E0DF91CF911F910895462F50E073
S11305A0BC018CE091E043D681E080930B01089577
S11305B0CF92DF92EF92FF920F931F93CF93DF932B
S11305C000D000D0CDB7DEB780910B01882309F4A9
S11305D049C110920B018CE091E0BCDF811105C090
S11305E088B3846088BBD9DD3DC1CDDDECE0F1E0AA
S11305F0319680818A32E1F710821182128213824D
S113060014828DE091E0A3DE182F8FE091E09FDE4D
S1130610082F812F90E08930910508F00AC1FC0170
S1130620E25EFF4F099453DE202F30E0220F331F88
S1130630220F331FBC01C9018F5E9E4FDDDEF9C05E
S11306406CDEE82EF12CFE2CEE2471DEB701680F6F
S1130650711D802F90E0880F991F880F991F8F5E5E
S11306609E4FCADEE6C00111E4C089DDE2C088B352
S11306708B7F88BB8BDDDDC00111DBC0ECE0F1E0DA
S113068001900020E9F7E651F14009F0D2C08AE078
S113069098E2A0EABAE38093040190930501A09341
S11306A00601B093070127DE6B017C0181E191E033
S11306B05EDEBC0180E090E025D420E030E04AE733
S11306C054E487D3A701960184D32AE038E240EAB0
S11306D05AE30FD569837A838B839C83BE016F5F52
S11306E07F4F80E077D1B0DD4ADD20E030E04AE79B
S11306F054E4C701B601FDD4D9D385E191E07CDE91
S1130700E6DDBC0189E191E077DE27EB33E44AEBD7
S113071051E5609104017091050180910601909169
S11307200701E7D4C3D3AB01BC018DE191E087DEBF
S113073080C001117EC0ECE0F1E001900020E9F7F7
S1130740E651F14009F075C0E8DD182F81E191E030
S11307500EDE9A838983BE016F5F7F4F81E03AD1B9
S113076073DD0DDDDADDF82E609102017091030175
S113077085E191E041DE612F70E0762F66276F0DF1
S1130780711D89E191E038DE54C0011152C0ECE0E2
S1130790F1E001900020E9F7E651F14009F049C089
S11307A0C6DD182F81E191E0E2DD9A838983BE01E1
S11307B06F5F7F4F82E00ED147DDE1DCB8DDF82EBC
S11307C0609100017091010185E191E015DE612FD6
S11307D070E0762F66276F0D711D89E191E00CDEC4
S11307E028C0011103C013D12FDDC9DC011121C0C0
S11307F027EB33E44AEB51E5609104017091050164
S1130800809106019091070174D450D3AB01BC01CF
S113081081E191E014DE609102017091030189E1AC
S113082091E0EADD60910001709101018DE191E0B8
S1130830E3DD61E0600F8FE091E0CCDD8CE091E0DE
S113084070DE0CE011E0F80101900020E9F7319727
S1130850BF016C507140C801CCD188E7F8011192F6
S11308608A95E9F70F900F900F900F90DF91CF9139
S11308701F910F91FF90EF90DF90CF9008958BB36D
S113088080688BBB82E48A95F1F700C085B18068EB
S113089085B980E888B983E089B9E0E6F0E0808131
S11308A08963808385B1846085B985B1886085B9A1
S11308B085B1806185B981E08093840108951092A7
S11308C0840185B18F7785B98BB38F778BBB0895FE
S11308D026B187B190E0982F8827822B0895813024
S11308E041F028F0823041F0833049F0089519B87E
S11308F0089583E089B9089584E089B9089585E06D
S113090089B908951895CF93C82F809184018111D6
S113091001C0B5DF8C2FE3DF85B1806185B991D04B
S11309202E99FECF85B1806185B9D2DFCF9108952C
S1130930CF92DF92EF92FF920F931F93CF93DF93A7
S1130940F82ED62FC0E000E010E005C08F2DDBDFCD
S1130950080F191FCF5FCD17C8F3B80180E090E0EE
S1130960D1D26B017C016D2F70E080E090E0CAD29F
S11309709B01AC01C701B6012CD2DF91CF911F912D
S11309800F91FF90EF90DF90CF90089584E090E076
S113099057D46F3F7F4F8F4F9F4F21F084E090E0FB
S11309A04FD4089560E070E0CB01089582E090E0B8
S11309B04CD48F3F2FEF920711F480E090E008951C
S11309C080E090E042D48F3F2FEF920711F480E053
S11309D090E00895813069F018F0823089F008952C
S11309E0FB01408151816281738184E090E032D4C3
S11309F00895FB016081718182E090E033D4089511
S1130A00FB016081718180E090E02CD408954FEF68
S1130A105FEFBA0184E090E01DD46FEF7FEF82E0D6
S1130A2090E020D46FEF7FEF80E090E01BD4089536
S1130A30F89480E285BF7894889585B78F7D85BFCB
S1130A400895F89488E285BF7894889585B78F7D5A
S1130A5085BF0895F89488E385BF7894889585B711
S1130A608F7D85BF0895CF92DF92EF92FF92CF934F
S1130A70DF936115710581F1EC0180E090E042D2D1
S1130A809B01AC0160E070EC8FE794E4A2D120E01C
S1130A9030E040E85FE334D1ECD26B017C01BE016D
S1130AA080E090E02FD29B01AC01C701B60191D147
S1130AB02FE03FEC4BE55BE324D19B01AC0160E00C
S1130AC070E080E89FE385D123E333E948E853E409
S1130AD017D1E7D1862F01C08DE9DF91CF91FF9027
S1130AE0EF90DF90CF90089588E7E0E0F2E0DF0137
S1130AF01D928A95E9F71092FF0108951F920F92B3
S1130B000FB60F9211242F933F934F935F936F93DC
S1130B107F938F939F93AF93BF93EF93FF933ADBAE
S1130B20FF91EF91BF91AF919F918F917F916F91C1
S1130B305F914F913F912F910F900FBE0F901F9097
S1130B4018951F920F920FB60F9211242F933F9373
S1130B504F935F936F937F938F939F93AF93BF93C1
S1130B60CF93EF93FF9316DB8091860082FF04C03E
S1130B70BBDF809180002BC0C0918000E091FF0119
S1130B8081E08E0F8093FF01F0E0E050FE4FC083C0
S1130B90CA3051F48BB380648BBB6091FF0180E059
S1130BA092E0FCDCA1DF13C0C13261F49DDFE0916F
S1130BB0FF0181E08E0F8093FF01F0E0E050FE4FD3
S1130BC0C08305C08091FF01883709F48DDFFF9150
S1130BD0EF91CF91BF91AF919F918F917F916F9141
S1130BE05F914F913F912F910F900FBE0F901F90E7
S1130BF018951F93CF93DF939C01162F9091850036
S1130C0095FDFCCFC5E8D0E0988198609883412F8A
S1130C1050E0B90187E891E00AD31092860110935D
S1130C208501888180668883DF91CF911F91089523
S1130C301F920F920FB60F9211248F939F93AF932D
S1130C40BF93EF93FF9380918501811106C0E5E87E
S1130C50F0E080818F7D80831DC0E091860181E07A
S1130C608E0F80938601F0E0E957FE4F80818093D8
S1130C708000909186018091850198130BC088E7CC
S1130C80E7E8F1E0DF011D928A95E9F71092860109
S1130C9010928501FF91EF91BF91AF919F918F9138
S1130CA00F900FBE0F901F9018951F920F920FB6C2
S1130CB00F9211242F933F934F935F936F937F93DE
S1130CC08F939F93AF93BF93EF93FF93E5E8F0E087
S1130CD080818F7B80838081877F80835EDAFF9130
S1130CE0EF91BF91AF919F918F917F916F915F91A0
S1130CF04F913F912F910F900FBE0F901F90189519
S1130D005058BB27AA270ED075C166D130F06BD1DD
S1130D1020F031F49F3F11F41EF45BC10EF4E09512
S1130D20E7FB51C1E92F77D180F3BA176207730744
S1130D308407950718F071F49EF58FC10EF4E095C1
S1130D400B2EBA2FA02D0B01B90190010C01CA0181
S1130D50A0011124FF27591B99F0593F50F4503E2C
S1130D6068F11A16F040A22F232F342F4427585F1E
S1130D70F3CF469537952795A795F0405395C9F736
S1130D807EF41F16BA0B620B730B840BBAF09150EE
S1130D90A1F0FF0FBB1F661F771F881FC2F70EC08D
S1130DA0BA0F621F731F841F48F487957795679560
S1130DB0B795F7959E3F08F0B3CF9395880F08F049
S1130DC09927EE0F979587950895D9D008F481E077
S1130DD008950CD00FC107D140F0FED030F021F4BB
S1130DE05F3F19F0F0C0511139C1F3C014D198F329
S1130DF09923C9F35523B1F3951B550BBB27AA2798
S1130E0062177307840738F09F5F5F4F220F331F09
S1130E10441FAA1FA9F333D00E2E3AF0E0E830D0D5
S1130E2091505040E695001CCAF729D0FE2F27D0D8
S1130E30660F771F881FBB1F261737074807AB07A6
S1130E40B0E809F0BB0B802DBF01FF2793585F4F1B
S1130E502AF09E3F510568F0B6C000C15F3FECF335
S1130E60983EDCF3869577956795B795F7959F5FE0
S1130E70C9F7880F911D9695879597F90895E1E034
S1130E80660F771F881FBB1F621773078407BA0793
S1130E9020F0621B730B840BBA0BEE1F88F7E095EE
S1130EA0089504D06894B111D9C00895BCD088F0D5
S1130EB09F5790F0B92F9927B751A0F0D1F0660F42
S1130EC0771F881F991F1AF0BA95C9F712C0B1305D
S1130ED081F0C3D0B1E00895C0C0672F782F882770
S1130EE0B85F39F0B93FCCF3869577956795B3959C
S1130EF0D9F73EF490958095709561957F4F8F4F0B
S1130F009F4F0895E89409C097FB3EF4909580950F
S1130F10709561957F4F8F4F9F4F9923A9F0F92FBB
S1130F2096E9BB279395F695879577956795B79539
S1130F30F111F8CFFAF4BB0F11F460FF1BC06F5F1F
S1130F407F4F8F4F9F4F16C0882311F096E911C031
S1130F50772321F09EE8872F762F05C0662371F052
S1130F6096E8862F70E060E02AF09A95660F771F66
S1130F70881FDAF7880F9695879597F90895990F42
S1130F800008550FAA0BE0E8FEEF16161706E8074F
S1130F90F907C0F012161306E407F50798F0621B70
S1130FA0730B840B950B39F40A2661F0232B242B45
S1130FB0252B21F408950A2609F4A140A6958FEF64
S1130FC0811D811D089597F99F6780E870E060E0B6
S1130FD008959FEF80EC089500240A9416161706CE
S1130FE018060906089500240A9412161306140616
S1130FF005060895092E0394000C11F4882352F079
S1131000BB0F40F4BF2B11F460FF04C06F5F7F4F30
S11310108F4F9F4F089557FD9058440F551F59F017
S11310205F3F71F04795880F97FB991F61F09F3FD1
S113103079F087950895121613061406551FF2CFFA
S11310404695F1DF08C0161617061806991FF1CF4A
S113105086957105610508940895E894BB27662771
S11310607727CB0197F908950EF0AEC0B2CF6894FC
S1131070AACFD9DFC8F39923D1F3C6F3DF93CF9373
S11310801F930F93FF92C92FDD2788232AF02197FE
S1131090660F771F881FDAF720E030E040E85FEB47
S11310A09FE3883920F0803E30F021968F7729DE47
S11310B0EEE4F0E003C025DEEBE7F0E093D08B0133
S11310C0BE01EC01FB2E6F5771097595771F880BD4
S11310D0990B1ADF28E132E741E35FE315D0AF2D26
S11310E09801AE01FF900F911F91CF91DF911ADE0D
S11310F081CF0AD07FCF70DF28F075DF18F09523F9
S113110009F061CF66CFAACF86DFA8F39923D9F37C
S11311105523C9F3950F50E0551FAA27EE27FF2743
S1131120BB2700240894679520F4E20FF31FB41F33
S11311300A1E220F331F441FAA1F6695A9F777952D
S113114030F4F30FB41F0A1E121E08F46395330F14
S1131150441FAA1F221F769599F7879520F4B40F90
S11311600A1E121E631F440FAA1F221F331F8695D7
S1131170A9F7862F712D602D11249F5750408AF0B6
S1131180E1F088234AF0EE0FFF1FBB1F661F771F95
S1131190881F91505040A9F79E3F510570F013CF1E
S11311A05DCF5F3FECF3983EDCF3869577956795CA
S11311B0B795F795E7959F5FC1F7FE2B880F911DB3
S11311C09695879597F908959F3F31F0915020F4B3
S11311D0879577956795B795880F911D969587950F
S11311E097F90895DF93CF931F930F93FF92EF9294
S11311F0DF927B018C01689405C0DA2EEF0184DF55
S1131200FE01E894A5912591359145915591AEF350
S1131210EF0188DDFE019701A801DA9479F7DF90E8
S1131220EF90FF900F911F91CF91DF910895FB01F3
S1131230DC0102C001900D9241505040D8F708954E
S1131240A6E1B0E044E050E013C0A8E1B0E042E021
S113125050E00EC00396272F1AD018D0252F17D090
S1131260242F15C00196272F12D010C0DC01CB010A
S1131270FC01E199FECF06C0FFBBEEBBE09A3196BC
S11312800DB20D9241505040B8F70895262FE199C0
S1131290FECF9FBB8EBBE09A01970DB2021639F0C8
S11312A01CBA2DBB0FB6F894E29AE19A0FBE0895CA
S10712B0F894FFCFDC
S10B12B46E0F6E0F0A28A03A28
S9030000FC
